{
  "abi": [
    {
      "type": "constructor",
      "inputs": [
        {
          "name": "_poolManager",
          "type": "address",
          "internalType": "contract IPoolManager"
        },
        {
          "name": "_owner",
          "type": "address",
          "internalType": "address"
        }
      ],
      "stateMutability": "nonpayable"
    },
    {
      "type": "function",
      "name": "addRouter",
      "inputs": [
        {
          "name": "_router",
          "type": "address",
          "internalType": "address"
        }
      ],
      "outputs": [],
      "stateMutability": "nonpayable"
    },
    {
      "type": "function",
      "name": "afterAddLiquidity",
      "inputs": [
        {
          "name": "sender",
          "type": "address",
          "internalType": "address"
        },
        {
          "name": "key",
          "type": "tuple",
          "internalType": "struct PoolKey",
          "components": [
            {
              "name": "currency0",
              "type": "address",
              "internalType": "Currency"
            },
            {
              "name": "currency1",
              "type": "address",
              "internalType": "Currency"
            },
            {
              "name": "fee",
              "type": "uint24",
              "internalType": "uint24"
            },
            {
              "name": "tickSpacing",
              "type": "int24",
              "internalType": "int24"
            },
            {
              "name": "hooks",
              "type": "address",
              "internalType": "contract IHooks"
            }
          ]
        },
        {
          "name": "params",
          "type": "tuple",
          "internalType": "struct ModifyLiquidityParams",
          "components": [
            {
              "name": "tickLower",
              "type": "int24",
              "internalType": "int24"
            },
            {
              "name": "tickUpper",
              "type": "int24",
              "internalType": "int24"
            },
            {
              "name": "liquidityDelta",
              "type": "int256",
              "internalType": "int256"
            },
            {
              "name": "salt",
              "type": "bytes32",
              "internalType": "bytes32"
            }
          ]
        },
        {
          "name": "delta",
          "type": "int256",
          "internalType": "BalanceDelta"
        },
        {
          "name": "feesAccrued",
          "type": "int256",
          "internalType": "BalanceDelta"
        },
        {
          "name": "hookData",
          "type": "bytes",
          "internalType": "bytes"
        }
      ],
      "outputs": [
        {
          "name": "",
          "type": "bytes4",
          "internalType": "bytes4"
        },
        {
          "name": "",
          "type": "int256",
          "internalType": "BalanceDelta"
        }
      ],
      "stateMutability": "nonpayable"
    },
    {
      "type": "function",
      "name": "afterDonate",
      "inputs": [
        {
          "name": "sender",
          "type": "address",
          "internalType": "address"
        },
        {
          "name": "key",
          "type": "tuple",
          "internalType": "struct PoolKey",
          "components": [
            {
              "name": "currency0",
              "type": "address",
              "internalType": "Currency"
            },
            {
              "name": "currency1",
              "type": "address",
              "internalType": "Currency"
            },
            {
              "name": "fee",
              "type": "uint24",
              "internalType": "uint24"
            },
            {
              "name": "tickSpacing",
              "type": "int24",
              "internalType": "int24"
            },
            {
              "name": "hooks",
              "type": "address",
              "internalType": "contract IHooks"
            }
          ]
        },
        {
          "name": "amount0",
          "type": "uint256",
          "internalType": "uint256"
        },
        {
          "name": "amount1",
          "type": "uint256",
          "internalType": "uint256"
        },
        {
          "name": "hookData",
          "type": "bytes",
          "internalType": "bytes"
        }
      ],
      "outputs": [
        {
          "name": "",
          "type": "bytes4",
          "internalType": "bytes4"
        }
      ],
      "stateMutability": "nonpayable"
    },
    {
      "type": "function",
      "name": "afterInitialize",
      "inputs": [
        {
          "name": "sender",
          "type": "address",
          "internalType": "address"
        },
        {
          "name": "key",
          "type": "tuple",
          "internalType": "struct PoolKey",
          "components": [
            {
              "name": "currency0",
              "type": "address",
              "internalType": "Currency"
            },
            {
              "name": "currency1",
              "type": "address",
              "internalType": "Currency"
            },
            {
              "name": "fee",
              "type": "uint24",
              "internalType": "uint24"
            },
            {
              "name": "tickSpacing",
              "type": "int24",
              "internalType": "int24"
            },
            {
              "name": "hooks",
              "type": "address",
              "internalType": "contract IHooks"
            }
          ]
        },
        {
          "name": "sqrtPriceX96",
          "type": "uint160",
          "internalType": "uint160"
        },
        {
          "name": "tick",
          "type": "int24",
          "internalType": "int24"
        }
      ],
      "outputs": [
        {
          "name": "",
          "type": "bytes4",
          "internalType": "bytes4"
        }
      ],
      "stateMutability": "nonpayable"
    },
    {
      "type": "function",
      "name": "afterRemoveLiquidity",
      "inputs": [
        {
          "name": "sender",
          "type": "address",
          "internalType": "address"
        },
        {
          "name": "key",
          "type": "tuple",
          "internalType": "struct PoolKey",
          "components": [
            {
              "name": "currency0",
              "type": "address",
              "internalType": "Currency"
            },
            {
              "name": "currency1",
              "type": "address",
              "internalType": "Currency"
            },
            {
              "name": "fee",
              "type": "uint24",
              "internalType": "uint24"
            },
            {
              "name": "tickSpacing",
              "type": "int24",
              "internalType": "int24"
            },
            {
              "name": "hooks",
              "type": "address",
              "internalType": "contract IHooks"
            }
          ]
        },
        {
          "name": "params",
          "type": "tuple",
          "internalType": "struct ModifyLiquidityParams",
          "components": [
            {
              "name": "tickLower",
              "type": "int24",
              "internalType": "int24"
            },
            {
              "name": "tickUpper",
              "type": "int24",
              "internalType": "int24"
            },
            {
              "name": "liquidityDelta",
              "type": "int256",
              "internalType": "int256"
            },
            {
              "name": "salt",
              "type": "bytes32",
              "internalType": "bytes32"
            }
          ]
        },
        {
          "name": "delta",
          "type": "int256",
          "internalType": "BalanceDelta"
        },
        {
          "name": "feesAccrued",
          "type": "int256",
          "internalType": "BalanceDelta"
        },
        {
          "name": "hookData",
          "type": "bytes",
          "internalType": "bytes"
        }
      ],
      "outputs": [
        {
          "name": "",
          "type": "bytes4",
          "internalType": "bytes4"
        },
        {
          "name": "",
          "type": "int256",
          "internalType": "BalanceDelta"
        }
      ],
      "stateMutability": "nonpayable"
    },
    {
      "type": "function",
      "name": "afterSwap",
      "inputs": [
        {
          "name": "sender",
          "type": "address",
          "internalType": "address"
        },
        {
          "name": "key",
          "type": "tuple",
          "internalType": "struct PoolKey",
          "components": [
            {
              "name": "currency0",
              "type": "address",
              "internalType": "Currency"
            },
            {
              "name": "currency1",
              "type": "address",
              "internalType": "Currency"
            },
            {
              "name": "fee",
              "type": "uint24",
              "internalType": "uint24"
            },
            {
              "name": "tickSpacing",
              "type": "int24",
              "internalType": "int24"
            },
            {
              "name": "hooks",
              "type": "address",
              "internalType": "contract IHooks"
            }
          ]
        },
        {
          "name": "params",
          "type": "tuple",
          "internalType": "struct SwapParams",
          "components": [
            {
              "name": "zeroForOne",
              "type": "bool",
              "internalType": "bool"
            },
            {
              "name": "amountSpecified",
              "type": "int256",
              "internalType": "int256"
            },
            {
              "name": "sqrtPriceLimitX96",
              "type": "uint160",
              "internalType": "uint160"
            }
          ]
        },
        {
          "name": "delta",
          "type": "int256",
          "internalType": "BalanceDelta"
        },
        {
          "name": "hookData",
          "type": "bytes",
          "internalType": "bytes"
        }
      ],
      "outputs": [
        {
          "name": "",
          "type": "bytes4",
          "internalType": "bytes4"
        },
        {
          "name": "",
          "type": "int128",
          "internalType": "int128"
        }
      ],
      "stateMutability": "nonpayable"
    },
    {
      "type": "function",
      "name": "beforeAddLiquidity",
      "inputs": [
        {
          "name": "sender",
          "type": "address",
          "internalType": "address"
        },
        {
          "name": "key",
          "type": "tuple",
          "internalType": "struct PoolKey",
          "components": [
            {
              "name": "currency0",
              "type": "address",
              "internalType": "Currency"
            },
            {
              "name": "currency1",
              "type": "address",
              "internalType": "Currency"
            },
            {
              "name": "fee",
              "type": "uint24",
              "internalType": "uint24"
            },
            {
              "name": "tickSpacing",
              "type": "int24",
              "internalType": "int24"
            },
            {
              "name": "hooks",
              "type": "address",
              "internalType": "contract IHooks"
            }
          ]
        },
        {
          "name": "params",
          "type": "tuple",
          "internalType": "struct ModifyLiquidityParams",
          "components": [
            {
              "name": "tickLower",
              "type": "int24",
              "internalType": "int24"
            },
            {
              "name": "tickUpper",
              "type": "int24",
              "internalType": "int24"
            },
            {
              "name": "liquidityDelta",
              "type": "int256",
              "internalType": "int256"
            },
            {
              "name": "salt",
              "type": "bytes32",
              "internalType": "bytes32"
            }
          ]
        },
        {
          "name": "hookData",
          "type": "bytes",
          "internalType": "bytes"
        }
      ],
      "outputs": [
        {
          "name": "",
          "type": "bytes4",
          "internalType": "bytes4"
        }
      ],
      "stateMutability": "nonpayable"
    },
    {
      "type": "function",
      "name": "beforeDonate",
      "inputs": [
        {
          "name": "sender",
          "type": "address",
          "internalType": "address"
        },
        {
          "name": "key",
          "type": "tuple",
          "internalType": "struct PoolKey",
          "components": [
            {
              "name": "currency0",
              "type": "address",
              "internalType": "Currency"
            },
            {
              "name": "currency1",
              "type": "address",
              "internalType": "Currency"
            },
            {
              "name": "fee",
              "type": "uint24",
              "internalType": "uint24"
            },
            {
              "name": "tickSpacing",
              "type": "int24",
              "internalType": "int24"
            },
            {
              "name": "hooks",
              "type": "address",
              "internalType": "contract IHooks"
            }
          ]
        },
        {
          "name": "amount0",
          "type": "uint256",
          "internalType": "uint256"
        },
        {
          "name": "amount1",
          "type": "uint256",
          "internalType": "uint256"
        },
        {
          "name": "hookData",
          "type": "bytes",
          "internalType": "bytes"
        }
      ],
      "outputs": [
        {
          "name": "",
          "type": "bytes4",
          "internalType": "bytes4"
        }
      ],
      "stateMutability": "nonpayable"
    },
    {
      "type": "function",
      "name": "beforeInitialize",
      "inputs": [
        {
          "name": "sender",
          "type": "address",
          "internalType": "address"
        },
        {
          "name": "key",
          "type": "tuple",
          "internalType": "struct PoolKey",
          "components": [
            {
              "name": "currency0",
              "type": "address",
              "internalType": "Currency"
            },
            {
              "name": "currency1",
              "type": "address",
              "internalType": "Currency"
            },
            {
              "name": "fee",
              "type": "uint24",
              "internalType": "uint24"
            },
            {
              "name": "tickSpacing",
              "type": "int24",
              "internalType": "int24"
            },
            {
              "name": "hooks",
              "type": "address",
              "internalType": "contract IHooks"
            }
          ]
        },
        {
          "name": "sqrtPriceX96",
          "type": "uint160",
          "internalType": "uint160"
        }
      ],
      "outputs": [
        {
          "name": "",
          "type": "bytes4",
          "internalType": "bytes4"
        }
      ],
      "stateMutability": "nonpayable"
    },
    {
      "type": "function",
      "name": "beforeRemoveLiquidity",
      "inputs": [
        {
          "name": "sender",
          "type": "address",
          "internalType": "address"
        },
        {
          "name": "key",
          "type": "tuple",
          "internalType": "struct PoolKey",
          "components": [
            {
              "name": "currency0",
              "type": "address",
              "internalType": "Currency"
            },
            {
              "name": "currency1",
              "type": "address",
              "internalType": "Currency"
            },
            {
              "name": "fee",
              "type": "uint24",
              "internalType": "uint24"
            },
            {
              "name": "tickSpacing",
              "type": "int24",
              "internalType": "int24"
            },
            {
              "name": "hooks",
              "type": "address",
              "internalType": "contract IHooks"
            }
          ]
        },
        {
          "name": "params",
          "type": "tuple",
          "internalType": "struct ModifyLiquidityParams",
          "components": [
            {
              "name": "tickLower",
              "type": "int24",
              "internalType": "int24"
            },
            {
              "name": "tickUpper",
              "type": "int24",
              "internalType": "int24"
            },
            {
              "name": "liquidityDelta",
              "type": "int256",
              "internalType": "int256"
            },
            {
              "name": "salt",
              "type": "bytes32",
              "internalType": "bytes32"
            }
          ]
        },
        {
          "name": "hookData",
          "type": "bytes",
          "internalType": "bytes"
        }
      ],
      "outputs": [
        {
          "name": "",
          "type": "bytes4",
          "internalType": "bytes4"
        }
      ],
      "stateMutability": "nonpayable"
    },
    {
      "type": "function",
      "name": "beforeSwap",
      "inputs": [
        {
          "name": "sender",
          "type": "address",
          "internalType": "address"
        },
        {
          "name": "key",
          "type": "tuple",
          "internalType": "struct PoolKey",
          "components": [
            {
              "name": "currency0",
              "type": "address",
              "internalType": "Currency"
            },
            {
              "name": "currency1",
              "type": "address",
              "internalType": "Currency"
            },
            {
              "name": "fee",
              "type": "uint24",
              "internalType": "uint24"
            },
            {
              "name": "tickSpacing",
              "type": "int24",
              "internalType": "int24"
            },
            {
              "name": "hooks",
              "type": "address",
              "internalType": "contract IHooks"
            }
          ]
        },
        {
          "name": "params",
          "type": "tuple",
          "internalType": "struct SwapParams",
          "components": [
            {
              "name": "zeroForOne",
              "type": "bool",
              "internalType": "bool"
            },
            {
              "name": "amountSpecified",
              "type": "int256",
              "internalType": "int256"
            },
            {
              "name": "sqrtPriceLimitX96",
              "type": "uint160",
              "internalType": "uint160"
            }
          ]
        },
        {
          "name": "hookData",
          "type": "bytes",
          "internalType": "bytes"
        }
      ],
      "outputs": [
        {
          "name": "",
          "type": "bytes4",
          "internalType": "bytes4"
        },
        {
          "name": "",
          "type": "int256",
          "internalType": "BeforeSwapDelta"
        },
        {
          "name": "",
          "type": "uint24",
          "internalType": "uint24"
        }
      ],
      "stateMutability": "nonpayable"
    },
    {
      "type": "function",
      "name": "getHookPermissions",
      "inputs": [],
      "outputs": [
        {
          "name": "",
          "type": "tuple",
          "internalType": "struct Hooks.Permissions",
          "components": [
            {
              "name": "beforeInitialize",
              "type": "bool",
              "internalType": "bool"
            },
            {
              "name": "afterInitialize",
              "type": "bool",
              "internalType": "bool"
            },
            {
              "name": "beforeAddLiquidity",
              "type": "bool",
              "internalType": "bool"
            },
            {
              "name": "afterAddLiquidity",
              "type": "bool",
              "internalType": "bool"
            },
            {
              "name": "beforeRemoveLiquidity",
              "type": "bool",
              "internalType": "bool"
            },
            {
              "name": "afterRemoveLiquidity",
              "type": "bool",
              "internalType": "bool"
            },
            {
              "name": "beforeSwap",
              "type": "bool",
              "internalType": "bool"
            },
            {
              "name": "afterSwap",
              "type": "bool",
              "internalType": "bool"
            },
            {
              "name": "beforeDonate",
              "type": "bool",
              "internalType": "bool"
            },
            {
              "name": "afterDonate",
              "type": "bool",
              "internalType": "bool"
            },
            {
              "name": "beforeSwapReturnDelta",
              "type": "bool",
              "internalType": "bool"
            },
            {
              "name": "afterSwapReturnDelta",
              "type": "bool",
              "internalType": "bool"
            },
            {
              "name": "afterAddLiquidityReturnDelta",
              "type": "bool",
              "internalType": "bool"
            },
            {
              "name": "afterRemoveLiquidityReturnDelta",
              "type": "bool",
              "internalType": "bool"
            }
          ]
        }
      ],
      "stateMutability": "pure"
    },
    {
      "type": "function",
      "name": "initializeLiquiDAOPool",
      "inputs": [
        {
          "name": "key",
          "type": "tuple",
          "internalType": "struct PoolKey",
          "components": [
            {
              "name": "currency0",
              "type": "address",
              "internalType": "Currency"
            },
            {
              "name": "currency1",
              "type": "address",
              "internalType": "Currency"
            },
            {
              "name": "fee",
              "type": "uint24",
              "internalType": "uint24"
            },
            {
              "name": "tickSpacing",
              "type": "int24",
              "internalType": "int24"
            },
            {
              "name": "hooks",
              "type": "address",
              "internalType": "contract IHooks"
            }
          ]
        },
        {
          "name": "sqrtPriceX96",
          "type": "uint160",
          "internalType": "uint160"
        },
        {
          "name": "merkleRoot",
          "type": "bytes32",
          "internalType": "bytes32"
        },
        {
          "name": "owner",
          "type": "address",
          "internalType": "address"
        }
      ],
      "outputs": [
        {
          "name": "tick",
          "type": "int24",
          "internalType": "int24"
        }
      ],
      "stateMutability": "nonpayable"
    },
    {
      "type": "function",
      "name": "liquiDAOPool",
      "inputs": [
        {
          "name": "",
          "type": "bytes32",
          "internalType": "PoolId"
        }
      ],
      "outputs": [
        {
          "name": "merkleRoot",
          "type": "bytes32",
          "internalType": "bytes32"
        },
        {
          "name": "owner",
          "type": "address",
          "internalType": "address"
        }
      ],
      "stateMutability": "view"
    },
    {
      "type": "function",
      "name": "owner",
      "inputs": [],
      "outputs": [
        {
          "name": "",
          "type": "address",
          "internalType": "address"
        }
      ],
      "stateMutability": "view"
    },
    {
      "type": "function",
      "name": "poolManager",
      "inputs": [],
      "outputs": [
        {
          "name": "",
          "type": "address",
          "internalType": "contract IPoolManager"
        }
      ],
      "stateMutability": "view"
    },
    {
      "type": "function",
      "name": "removeRouter",
      "inputs": [
        {
          "name": "_router",
          "type": "address",
          "internalType": "address"
        }
      ],
      "outputs": [],
      "stateMutability": "nonpayable"
    },
    {
      "type": "function",
      "name": "renounceOwnership",
      "inputs": [],
      "outputs": [],
      "stateMutability": "nonpayable"
    },
    {
      "type": "function",
      "name": "transferOwnership",
      "inputs": [
        {
          "name": "newOwner",
          "type": "address",
          "internalType": "address"
        }
      ],
      "outputs": [],
      "stateMutability": "nonpayable"
    },
    {
      "type": "function",
      "name": "updateLiquiDAOPool",
      "inputs": [
        {
          "name": "key",
          "type": "tuple",
          "internalType": "struct PoolKey",
          "components": [
            {
              "name": "currency0",
              "type": "address",
              "internalType": "Currency"
            },
            {
              "name": "currency1",
              "type": "address",
              "internalType": "Currency"
            },
            {
              "name": "fee",
              "type": "uint24",
              "internalType": "uint24"
            },
            {
              "name": "tickSpacing",
              "type": "int24",
              "internalType": "int24"
            },
            {
              "name": "hooks",
              "type": "address",
              "internalType": "contract IHooks"
            }
          ]
        },
        {
          "name": "merkleRoot",
          "type": "bytes32",
          "internalType": "bytes32"
        },
        {
          "name": "owner",
          "type": "address",
          "internalType": "address"
        }
      ],
      "outputs": [],
      "stateMutability": "nonpayable"
    },
    {
      "type": "function",
      "name": "verifiedRouters",
      "inputs": [
        {
          "name": "swapRouter",
          "type": "address",
          "internalType": "address"
        }
      ],
      "outputs": [
        {
          "name": "approved",
          "type": "bool",
          "internalType": "bool"
        }
      ],
      "stateMutability": "view"
    },
    {
      "type": "event",
      "name": "OwnershipTransferred",
      "inputs": [
        {
          "name": "previousOwner",
          "type": "address",
          "indexed": true,
          "internalType": "address"
        },
        {
          "name": "newOwner",
          "type": "address",
          "indexed": true,
          "internalType": "address"
        }
      ],
      "anonymous": false
    },
    {
      "type": "event",
      "name": "VerificationParamsSetup",
      "inputs": [
        {
          "name": "poolId",
          "type": "bytes32",
          "indexed": true,
          "internalType": "PoolId"
        },
        {
          "name": "merkleRoot",
          "type": "bytes32",
          "indexed": true,
          "internalType": "bytes32"
        },
        {
          "name": "owner",
          "type": "address",
          "indexed": true,
          "internalType": "address"
        }
      ],
      "anonymous": false
    },
    {
      "type": "error",
      "name": "HookNotImplemented",
      "inputs": []
    },
    {
      "type": "error",
      "name": "NotPoolManager",
      "inputs": []
    },
    {
      "type": "error",
      "name": "OwnableInvalidOwner",
      "inputs": [
        {
          "name": "owner",
          "type": "address",
          "internalType": "address"
        }
      ]
    },
    {
      "type": "error",
      "name": "OwnableUnauthorizedAccount",
      "inputs": [
        {
          "name": "account",
          "type": "address",
          "internalType": "address"
        }
      ]
    },
    {
      "type": "error",
      "name": "RouterUnauthorized",
      "inputs": []
    },
    {
      "type": "error",
      "name": "Unauthorized",
      "inputs": []
    },
    {
      "type": "error",
      "name": "WRONG_HOOK",
      "inputs": []
    }
  ],
  "bytecode": {
    "object": "0x60a060405234801561000f575f80fd5b506040516133b53803806133b583398181016040528101906100319190610755565b8082808073ffffffffffffffffffffffffffffffffffffffff1660808173ffffffffffffffffffffffffffffffffffffffff1681525050506100783061010060201b60201c565b505f73ffffffffffffffffffffffffffffffffffffffff168173ffffffffffffffffffffffffffffffffffffffff16036100e9575f6040517f1e4fbdf70000000000000000000000000000000000000000000000000000000081526004016100e091906107a2565b60405180910390fd5b6100f88161012060201b60201c565b5050506107bb565b61011d816101126101e160201b60201c565b61026960201b60201c565b50565b5f805f9054906101000a900473ffffffffffffffffffffffffffffffffffffffff169050815f806101000a81548173ffffffffffffffffffffffffffffffffffffffff021916908373ffffffffffffffffffffffffffffffffffffffff1602179055508173ffffffffffffffffffffffffffffffffffffffff168173ffffffffffffffffffffffffffffffffffffffff167f8be0079c531659141344cd1fd0a4f28419497f9722a3daafe3b4186f6b6457e060405160405180910390a35050565b6101e961063f565b604051806101c001604052805f151581526020015f151581526020015f151581526020015f151581526020015f151581526020015f151581526020016001151581526020015f151581526020015f151581526020015f151581526020015f151581526020015f151581526020015f151581526020015f1515815250905090565b6102946120008373ffffffffffffffffffffffffffffffffffffffff166105f860201b90919060201c565b1515815f015115151415806102db57506102cf6110008373ffffffffffffffffffffffffffffffffffffffff166105f860201b90919060201c565b15158160200151151514155b80610318575061030c6108008373ffffffffffffffffffffffffffffffffffffffff166105f860201b90919060201c565b15158160400151151514155b8061035557506103496104008373ffffffffffffffffffffffffffffffffffffffff166105f860201b90919060201c565b15158160600151151514155b8061039257506103866102008373ffffffffffffffffffffffffffffffffffffffff166105f860201b90919060201c565b15158160800151151514155b806103cf57506103c36101008373ffffffffffffffffffffffffffffffffffffffff166105f860201b90919060201c565b15158160a00151151514155b8061040b57506103ff60808373ffffffffffffffffffffffffffffffffffffffff166105f860201b90919060201c565b15158160c00151151514155b80610447575061043b60408373ffffffffffffffffffffffffffffffffffffffff166105f860201b90919060201c565b15158160e00151151514155b80610484575061047760208373ffffffffffffffffffffffffffffffffffffffff166105f860201b90919060201c565b1515816101000151151514155b806104c157506104b460108373ffffffffffffffffffffffffffffffffffffffff166105f860201b90919060201c565b1515816101200151151514155b806104fe57506104f160088373ffffffffffffffffffffffffffffffffffffffff166105f860201b90919060201c565b1515816101400151151514155b8061053b575061052e60048373ffffffffffffffffffffffffffffffffffffffff166105f860201b90919060201c565b1515816101600151151514155b80610578575061056b60028373ffffffffffffffffffffffffffffffffffffffff166105f860201b90919060201c565b1515816101800151151514155b806105b557506105a860018373ffffffffffffffffffffffffffffffffffffffff166105f860201b90919060201c565b1515816101a00151151514155b156105f4576105f38263e65af6a060e01b7bffffffffffffffffffffffffffffffffffffffffffffffffffffffff191661061d60201b90919060201c565b5b5050565b5f8082841673ffffffffffffffffffffffffffffffffffffffff161415905092915050565b815f5273ffffffffffffffffffffffffffffffffffffffff811660045260245ffd5b604051806101c001604052805f151581526020015f151581526020015f151581526020015f151581526020015f151581526020015f151581526020015f151581526020015f151581526020015f151581526020015f151581526020015f151581526020015f151581526020015f151581526020015f151581525090565b5f80fd5b5f73ffffffffffffffffffffffffffffffffffffffff82169050919050565b5f6106e9826106c0565b9050919050565b5f6106fa826106df565b9050919050565b61070a816106f0565b8114610714575f80fd5b50565b5f8151905061072581610701565b92915050565b610734816106df565b811461073e575f80fd5b50565b5f8151905061074f8161072b565b92915050565b5f806040838503121561076b5761076a6106bc565b5b5f61077885828601610717565b925050602061078985828601610741565b9150509250929050565b61079c816106df565b82525050565b5f6020820190506107b55f830184610793565b92915050565b608051612b956108205f395f8181610675015281816107a9015281816108a5015281816109b201528181610bd101528181610c7601528181610d4d01528181610df301528181610e9601528181610fbd01528181610fe2015261107c0152612b955ff3fe608060405234801561000f575f80fd5b5060043610610134575f3560e01c80636fe7e6eb116100b6578063b6a8b0fa1161007a578063b6a8b0fa1461039a578063c4e833ce146103ca578063dc4c90d3146103e8578063dc98354e14610406578063e1b4af6914610436578063f2fde38b1461046657610134565b80636fe7e6eb146102e0578063715018a6146103105780638da5cb5b1461031a5780639f063efc14610338578063b47b2fb11461036957610134565b80634abe17fd116100fd5780634abe17fd14610201578063575e24b4146102315780635f8fd659146102635780636ae0b154146102935780636c2bbe7e146102af57610134565b806250fc9c1461013857806321d0ee701461015457806324ca984e14610184578063259982e5146101a05780633b4cebd3146101d0575b5f80fd5b610152600480360381019061014d9190611d6f565b610482565b005b61016e60048036038101906101699190611e60565b610672565b60405161017b9190611f20565b60405180910390f35b61019e60048036038101906101999190611f39565b610710565b005b6101ba60048036038101906101b59190611e60565b6107a6565b6040516101c79190611f20565b60405180910390f35b6101ea60048036038101906101e59190611f8e565b610844565b6040516101f8929190611fd7565b60405180910390f35b61021b60048036038101906102169190611f39565b610883565b6040516102289190612018565b60405180910390f35b61024b6004803603810190610246919061204f565b6108a0565b60405161025a93929190612126565b60405180910390f35b61027d60048036038101906102789190612185565b610946565b60405161028a91906121f9565b60405180910390f35b6102ad60048036038101906102a89190611f39565b610b37565b005b6102c960048036038101906102c4919061223c565b610bcd565b6040516102d79291906122f9565b60405180910390f35b6102fa60048036038101906102f59190612320565b610c73565b6040516103079190611f20565b60405180910390f35b610318610d0f565b005b610322610d22565b60405161032f9190612385565b60405180910390f35b610352600480360381019061034d919061223c565b610d49565b6040516103609291906122f9565b60405180910390f35b610383600480360381019061037e919061239e565b610def565b604051610391929190612452565b60405180910390f35b6103b460048036038101906103af91906124ac565b610e93565b6040516103c19190611f20565b60405180910390f35b6103d2610f33565b6040516103df9190612671565b60405180910390f35b6103f0610fbb565b6040516103fd91906126dd565b60405180910390f35b610420600480360381019061041b91906126f6565b610fdf565b60405161042d9190611f20565b60405180910390f35b610450600480360381019061044b91906124ac565b611079565b60405161045d9190611f20565b60405180910390f35b610480600480360381019061047b9190611f39565b611119565b005b3373ffffffffffffffffffffffffffffffffffffffff1660025f6104a58661119d565b81526020019081526020015f206001015f9054906101000a900473ffffffffffffffffffffffffffffffffffffffff1673ffffffffffffffffffffffffffffffffffffffff1614610522576040517f82b4290000000000000000000000000000000000000000000000000000000000815260040160405180910390fd5b3073ffffffffffffffffffffffffffffffffffffffff16836080015173ffffffffffffffffffffffffffffffffffffffff161461058b576040517f033911f100000000000000000000000000000000000000000000000000000000815260040160405180910390fd5b60405180604001604052808381526020018273ffffffffffffffffffffffffffffffffffffffff1681525060025f6105c28661119d565b81526020019081526020015f205f820151815f01556020820151816001015f6101000a81548173ffffffffffffffffffffffffffffffffffffffff021916908373ffffffffffffffffffffffffffffffffffffffff1602179055509050508073ffffffffffffffffffffffffffffffffffffffff16826106418561119d565b7f6f7fa24423158cf6758d6dabac0642f3aa4f6dc4a469cceadbef5d346221f9e860405160405180910390a4505050565b5f7f000000000000000000000000000000000000000000000000000000000000000073ffffffffffffffffffffffffffffffffffffffff163373ffffffffffffffffffffffffffffffffffffffff16146106f8576040517fae18210a00000000000000000000000000000000000000000000000000000000815260040160405180910390fd5b61070586868686866111a9565b905095945050505050565b6001805f8373ffffffffffffffffffffffffffffffffffffffff1673ffffffffffffffffffffffffffffffffffffffff1681526020019081526020015f205f6101000a81548160ff0219169083151502179055506107a36040518060400160405280600d81526020017f526f757465722061646465643a00000000000000000000000000000000000000815250826111dc565b50565b5f7f000000000000000000000000000000000000000000000000000000000000000073ffffffffffffffffffffffffffffffffffffffff163373ffffffffffffffffffffffffffffffffffffffff161461082c576040517fae18210a00000000000000000000000000000000000000000000000000000000815260040160405180910390fd5b6108398686868686611278565b905095945050505050565b6002602052805f5260405f205f91509050805f015490806001015f9054906101000a900473ffffffffffffffffffffffffffffffffffffffff16905082565b6001602052805f5260405f205f915054906101000a900460ff1681565b5f805f7f000000000000000000000000000000000000000000000000000000000000000073ffffffffffffffffffffffffffffffffffffffff163373ffffffffffffffffffffffffffffffffffffffff1614610928576040517fae18210a00000000000000000000000000000000000000000000000000000000815260040160405180910390fd5b61093588888888886112ab565b925092509250955095509592505050565b5f3073ffffffffffffffffffffffffffffffffffffffff16856080015173ffffffffffffffffffffffffffffffffffffffff16146109b0576040517f033911f100000000000000000000000000000000000000000000000000000000815260040160405180910390fd5b7f000000000000000000000000000000000000000000000000000000000000000073ffffffffffffffffffffffffffffffffffffffff16636276cbbe86866040518363ffffffff1660e01b8152600401610a0b929190612819565b6020604051808303815f875af1158015610a27573d5f803e3d5ffd5b505050506040513d601f19601f82011682018060405250810190610a4b9190612854565b905060405180604001604052808481526020018373ffffffffffffffffffffffffffffffffffffffff1681525060025f610a848861119d565b81526020019081526020015f205f820151815f01556020820151816001015f6101000a81548173ffffffffffffffffffffffffffffffffffffffff021916908373ffffffffffffffffffffffffffffffffffffffff1602179055509050508173ffffffffffffffffffffffffffffffffffffffff1683610b038761119d565b7f6f7fa24423158cf6758d6dabac0642f3aa4f6dc4a469cceadbef5d346221f9e860405160405180910390a4949350505050565b5f60015f8373ffffffffffffffffffffffffffffffffffffffff1673ffffffffffffffffffffffffffffffffffffffff1681526020019081526020015f205f6101000a81548160ff021916908315150217905550610bca6040518060400160405280600f81526020017f526f757465722072656d6f7665643a0000000000000000000000000000000000815250826111dc565b50565b5f807f000000000000000000000000000000000000000000000000000000000000000073ffffffffffffffffffffffffffffffffffffffff163373ffffffffffffffffffffffffffffffffffffffff1614610c54576040517fae18210a00000000000000000000000000000000000000000000000000000000815260040160405180910390fd5b610c63898989898989896114fa565b9150915097509795505050505050565b5f7f000000000000000000000000000000000000000000000000000000000000000073ffffffffffffffffffffffffffffffffffffffff163373ffffffffffffffffffffffffffffffffffffffff1614610cf9576040517fae18210a00000000000000000000000000000000000000000000000000000000815260040160405180910390fd5b610d058585858561152e565b9050949350505050565b610d17611561565b610d205f6115e8565b565b5f805f9054906101000a900473ffffffffffffffffffffffffffffffffffffffff16905090565b5f807f000000000000000000000000000000000000000000000000000000000000000073ffffffffffffffffffffffffffffffffffffffff163373ffffffffffffffffffffffffffffffffffffffff1614610dd0576040517fae18210a00000000000000000000000000000000000000000000000000000000815260040160405180910390fd5b610ddf898989898989896116a9565b9150915097509795505050505050565b5f807f000000000000000000000000000000000000000000000000000000000000000073ffffffffffffffffffffffffffffffffffffffff163373ffffffffffffffffffffffffffffffffffffffff1614610e76576040517fae18210a00000000000000000000000000000000000000000000000000000000815260040160405180910390fd5b610e848888888888886116dd565b91509150965096945050505050565b5f7f000000000000000000000000000000000000000000000000000000000000000073ffffffffffffffffffffffffffffffffffffffff163373ffffffffffffffffffffffffffffffffffffffff1614610f19576040517fae18210a00000000000000000000000000000000000000000000000000000000815260040160405180910390fd5b610f27878787878787611711565b90509695505050505050565b610f3b611a62565b604051806101c001604052805f151581526020015f151581526020015f151581526020015f151581526020015f151581526020015f151581526020016001151581526020015f151581526020015f151581526020015f151581526020015f151581526020015f151581526020015f151581526020015f1515815250905090565b7f000000000000000000000000000000000000000000000000000000000000000081565b5f7f000000000000000000000000000000000000000000000000000000000000000073ffffffffffffffffffffffffffffffffffffffff163373ffffffffffffffffffffffffffffffffffffffff1614611065576040517fae18210a00000000000000000000000000000000000000000000000000000000815260040160405180910390fd5b611070848484611744565b90509392505050565b5f7f000000000000000000000000000000000000000000000000000000000000000073ffffffffffffffffffffffffffffffffffffffff163373ffffffffffffffffffffffffffffffffffffffff16146110ff576040517fae18210a00000000000000000000000000000000000000000000000000000000815260040160405180910390fd5b61110d878787878787611777565b90509695505050505050565b611121611561565b5f73ffffffffffffffffffffffffffffffffffffffff168173ffffffffffffffffffffffffffffffffffffffff1603611191575f6040517f1e4fbdf70000000000000000000000000000000000000000000000000000000081526004016111889190612385565b60405180910390fd5b61119a816115e8565b50565b5f60a082209050919050565b5f6040517f0a85dc2900000000000000000000000000000000000000000000000000000000815260040160405180910390fd5b61127482826040516024016111f29291906128df565b6040516020818303038152906040527f319af333000000000000000000000000000000000000000000000000000000007bffffffffffffffffffffffffffffffffffffffffffffffffffffffff19166020820180517bffffffffffffffffffffffffffffffffffffffffffffffffffffffff83818316178352505050506117aa565b5050565b5f6040517f0a85dc2900000000000000000000000000000000000000000000000000000000815260040160405180910390fd5b5f805f808873ffffffffffffffffffffffffffffffffffffffff1663d737d0c76040518163ffffffff1660e01b8152600401602060405180830381865afa92505050801561131757506040513d601f19601f820116820180604052508101906113149190612921565b60015b61134d576040517fa77c5c3300000000000000000000000000000000000000000000000000000000815260040160405180910390fd5b809150505f60025f61136e8b803603810190611369919061294c565b61119d565b81526020019081526020015f205f015490505f87878101906113909190612a37565b90506113d06040518060400160405280600481526020017f726f6f74000000000000000000000000000000000000000000000000000000008152506117c4565b6113d98261185d565b6114176040518060400160405280600781526020017f73776170706572000000000000000000000000000000000000000000000000008152506117c4565b611420836118f6565b611441604051806060016040528060248152602001612b71602491396117c4565b611470836040516020016114559190612ac3565b6040516020818303038152906040528051906020012061185d565b5f6114a28284866040516020016114879190612ac3565b6040516020818303038152906040528051906020012061198f565b9050806114db576040517f82b4290000000000000000000000000000000000000000000000000000000000815260040160405180910390fd5b63575e24b460e01b5f8096509650965050505050955095509592505050565b5f806040517f0a85dc2900000000000000000000000000000000000000000000000000000000815260040160405180910390fd5b5f6040517f0a85dc2900000000000000000000000000000000000000000000000000000000815260040160405180910390fd5b6115696119a5565b73ffffffffffffffffffffffffffffffffffffffff16611587610d22565b73ffffffffffffffffffffffffffffffffffffffff16146115e6576115aa6119a5565b6040517f118cdaa70000000000000000000000000000000000000000000000000000000081526004016115dd9190612385565b60405180910390fd5b565b5f805f9054906101000a900473ffffffffffffffffffffffffffffffffffffffff169050815f806101000a81548173ffffffffffffffffffffffffffffffffffffffff021916908373ffffffffffffffffffffffffffffffffffffffff1602179055508173ffffffffffffffffffffffffffffffffffffffff168173ffffffffffffffffffffffffffffffffffffffff167f8be0079c531659141344cd1fd0a4f28419497f9722a3daafe3b4186f6b6457e060405160405180910390a35050565b5f806040517f0a85dc2900000000000000000000000000000000000000000000000000000000815260040160405180910390fd5b5f806040517f0a85dc2900000000000000000000000000000000000000000000000000000000815260040160405180910390fd5b5f6040517f0a85dc2900000000000000000000000000000000000000000000000000000000815260040160405180910390fd5b5f6040517f0a85dc2900000000000000000000000000000000000000000000000000000000815260040160405180910390fd5b5f6040517f0a85dc2900000000000000000000000000000000000000000000000000000000815260040160405180910390fd5b6117c1816117b96119ac6119cb565b63ffffffff16565b50565b61185a816040516024016117d89190612add565b6040516020818303038152906040527f41304fac000000000000000000000000000000000000000000000000000000007bffffffffffffffffffffffffffffffffffffffffffffffffffffffff19166020820180517bffffffffffffffffffffffffffffffffffffffffffffffffffffffff83818316178352505050506117aa565b50565b6118f3816040516024016118719190612afd565b6040516020818303038152906040527f27b7cf85000000000000000000000000000000000000000000000000000000007bffffffffffffffffffffffffffffffffffffffffffffffffffffffff19166020820180517bffffffffffffffffffffffffffffffffffffffffffffffffffffffff83818316178352505050506117aa565b50565b61198c8160405160240161190a9190612385565b6040516020818303038152906040527f2c2ecbc2000000000000000000000000000000000000000000000000000000007bffffffffffffffffffffffffffffffffffffffffffffffffffffffff19166020820180517bffffffffffffffffffffffffffffffffffffffffffffffffffffffff83818316178352505050506117aa565b50565b5f8261199b85846119d6565b1490509392505050565b5f33905090565b5f6a636f6e736f6c652e6c6f6790505f80835160208501845afa505050565b611adf819050919050565b5f808290505f5b8451811015611a1957611a0a828683815181106119fd576119fc612b16565b5b6020026020010151611a24565b915080806001019150506119dd565b508091505092915050565b5f818310611a3b57611a368284611a4e565b611a46565b611a458383611a4e565b5b905092915050565b5f825f528160205260405f20905092915050565b604051806101c001604052805f151581526020015f151581526020015f151581526020015f151581526020015f151581526020015f151581526020015f151581526020015f151581526020015f151581526020015f151581526020015f151581526020015f151581526020015f151581526020015f151581525090565b611ae7612b43565b565b5f604051905090565b5f80fd5b5f80fd5b5f80fd5b5f601f19601f8301169050919050565b7f4e487b71000000000000000000000000000000000000000000000000000000005f52604160045260245ffd5b611b4482611afe565b810181811067ffffffffffffffff82111715611b6357611b62611b0e565b5b80604052505050565b5f611b75611ae9565b9050611b818282611b3b565b919050565b5f73ffffffffffffffffffffffffffffffffffffffff82169050919050565b5f611baf82611b86565b9050919050565b611bbf81611ba5565b8114611bc9575f80fd5b50565b5f81359050611bda81611bb6565b92915050565b5f62ffffff82169050919050565b611bf781611be0565b8114611c01575f80fd5b50565b5f81359050611c1281611bee565b92915050565b5f8160020b9050919050565b611c2d81611c18565b8114611c37575f80fd5b50565b5f81359050611c4881611c24565b92915050565b5f611c5882611ba5565b9050919050565b611c6881611c4e565b8114611c72575f80fd5b50565b5f81359050611c8381611c5f565b92915050565b5f60a08284031215611c9e57611c9d611afa565b5b611ca860a0611b6c565b90505f611cb784828501611bcc565b5f830152506020611cca84828501611bcc565b6020830152506040611cde84828501611c04565b6040830152506060611cf284828501611c3a565b6060830152506080611d0684828501611c75565b60808301525092915050565b5f819050919050565b611d2481611d12565b8114611d2e575f80fd5b50565b5f81359050611d3f81611d1b565b92915050565b611d4e81611ba5565b8114611d58575f80fd5b50565b5f81359050611d6981611d45565b92915050565b5f805f60e08486031215611d8657611d85611af2565b5b5f611d9386828701611c89565b93505060a0611da486828701611d31565b92505060c0611db586828701611d5b565b9150509250925092565b5f80fd5b5f60a08284031215611dd857611dd7611dbf565b5b81905092915050565b5f60808284031215611df657611df5611dbf565b5b81905092915050565b5f80fd5b5f80fd5b5f80fd5b5f8083601f840112611e2057611e1f611dff565b5b8235905067ffffffffffffffff811115611e3d57611e3c611e03565b5b602083019150836001820283011115611e5957611e58611e07565b5b9250929050565b5f805f805f6101608688031215611e7a57611e79611af2565b5b5f611e8788828901611d5b565b9550506020611e9888828901611dc3565b94505060c0611ea988828901611de1565b93505061014086013567ffffffffffffffff811115611ecb57611eca611af6565b5b611ed788828901611e0b565b92509250509295509295909350565b5f7fffffffff0000000000000000000000000000000000000000000000000000000082169050919050565b611f1a81611ee6565b82525050565b5f602082019050611f335f830184611f11565b92915050565b5f60208284031215611f4e57611f4d611af2565b5b5f611f5b84828501611d5b565b91505092915050565b611f6d81611d12565b8114611f77575f80fd5b50565b5f81359050611f8881611f64565b92915050565b5f60208284031215611fa357611fa2611af2565b5b5f611fb084828501611f7a565b91505092915050565b611fc281611d12565b82525050565b611fd181611ba5565b82525050565b5f604082019050611fea5f830185611fb9565b611ff76020830184611fc8565b9392505050565b5f8115159050919050565b61201281611ffe565b82525050565b5f60208201905061202b5f830184612009565b92915050565b5f6060828403121561204657612045611dbf565b5b81905092915050565b5f805f805f610140868803121561206957612068611af2565b5b5f61207688828901611d5b565b955050602061208788828901611dc3565b94505060c061209888828901612031565b93505061012086013567ffffffffffffffff8111156120ba576120b9611af6565b5b6120c688828901611e0b565b92509250509295509295909350565b5f819050919050565b5f819050919050565b5f6121016120fc6120f7846120d5565b6120de565b6120d5565b9050919050565b612111816120e7565b82525050565b61212081611be0565b82525050565b5f6060820190506121395f830186611f11565b6121466020830185612108565b6121536040830184612117565b949350505050565b61216481611b86565b811461216e575f80fd5b50565b5f8135905061217f8161215b565b92915050565b5f805f80610100858703121561219e5761219d611af2565b5b5f6121ab87828801611c89565b94505060a06121bc87828801612171565b93505060c06121cd87828801611d31565b92505060e06121de87828801611d5b565b91505092959194509250565b6121f381611c18565b82525050565b5f60208201905061220c5f8301846121ea565b92915050565b61221b816120d5565b8114612225575f80fd5b50565b5f8135905061223681612212565b92915050565b5f805f805f805f6101a0888a03121561225857612257611af2565b5b5f6122658a828b01611d5b565b97505060206122768a828b01611dc3565b96505060c06122878a828b01611de1565b9550506101406122998a828b01612228565b9450506101606122ab8a828b01612228565b93505061018088013567ffffffffffffffff8111156122cd576122cc611af6565b5b6122d98a828b01611e0b565b925092505092959891949750929550565b6122f3816120e7565b82525050565b5f60408201905061230c5f830185611f11565b61231960208301846122ea565b9392505050565b5f805f80610100858703121561233957612338611af2565b5b5f61234687828801611d5b565b945050602061235787828801611dc3565b93505060c061236887828801612171565b92505060e061237987828801611c3a565b91505092959194509250565b5f6020820190506123985f830184611fc8565b92915050565b5f805f805f8061016087890312156123b9576123b8611af2565b5b5f6123c689828a01611d5b565b96505060206123d789828a01611dc3565b95505060c06123e889828a01612031565b9450506101206123fa89828a01612228565b93505061014087013567ffffffffffffffff81111561241c5761241b611af6565b5b61242889828a01611e0b565b92509250509295509295509295565b5f81600f0b9050919050565b61244c81612437565b82525050565b5f6040820190506124655f830185611f11565b6124726020830184612443565b9392505050565b5f819050919050565b61248b81612479565b8114612495575f80fd5b50565b5f813590506124a681612482565b92915050565b5f805f805f8061012087890312156124c7576124c6611af2565b5b5f6124d489828a01611d5b565b96505060206124e589828a01611dc3565b95505060c06124f689828a01612498565b94505060e061250789828a01612498565b93505061010087013567ffffffffffffffff81111561252957612528611af6565b5b61253589828a01611e0b565b92509250509295509295509295565b61254d81611ffe565b82525050565b6101c082015f8201516125685f850182612544565b50602082015161257b6020850182612544565b50604082015161258e6040850182612544565b5060608201516125a16060850182612544565b5060808201516125b46080850182612544565b5060a08201516125c760a0850182612544565b5060c08201516125da60c0850182612544565b5060e08201516125ed60e0850182612544565b50610100820151612602610100850182612544565b50610120820151612617610120850182612544565b5061014082015161262c610140850182612544565b50610160820151612641610160850182612544565b50610180820151612656610180850182612544565b506101a082015161266b6101a0850182612544565b50505050565b5f6101c0820190506126855f830184612553565b92915050565b5f6126a56126a061269b84611b86565b6120de565b611b86565b9050919050565b5f6126b68261268b565b9050919050565b5f6126c7826126ac565b9050919050565b6126d7816126bd565b82525050565b5f6020820190506126f05f8301846126ce565b92915050565b5f805f60e0848603121561270d5761270c611af2565b5b5f61271a86828701611d5b565b935050602061272b86828701611dc3565b92505060c061273c86828701612171565b9150509250925092565b5f612750826126ac565b9050919050565b61276081612746565b82525050565b61276f81611be0565b82525050565b61277e81611c18565b82525050565b5f61278e826126ac565b9050919050565b61279e81612784565b82525050565b60a082015f8201516127b85f850182612757565b5060208201516127cb6020850182612757565b5060408201516127de6040850182612766565b5060608201516127f16060850182612775565b5060808201516128046080850182612795565b50505050565b61281381611b86565b82525050565b5f60c08201905061282c5f8301856127a4565b61283960a083018461280a565b9392505050565b5f8151905061284e81611c24565b92915050565b5f6020828403121561286957612868611af2565b5b5f61287684828501612840565b91505092915050565b5f81519050919050565b5f82825260208201905092915050565b8281835e5f83830152505050565b5f6128b18261287f565b6128bb8185612889565b93506128cb818560208601612899565b6128d481611afe565b840191505092915050565b5f6040820190508181035f8301526128f781856128a7565b90506129066020830184611fc8565b9392505050565b5f8151905061291b81611d45565b92915050565b5f6020828403121561293657612935611af2565b5b5f6129438482850161290d565b91505092915050565b5f60a0828403121561296157612960611af2565b5b5f61296e84828501611c89565b91505092915050565b5f67ffffffffffffffff82111561299157612990611b0e565b5b602082029050602081019050919050565b5f6129b46129af84612977565b611b6c565b905080838252602082019050602084028301858111156129d7576129d6611e07565b5b835b81811015612a0057806129ec8882611d31565b8452602084019350506020810190506129d9565b5050509392505050565b5f82601f830112612a1e57612a1d611dff565b5b8135612a2e8482602086016129a2565b91505092915050565b5f60208284031215612a4c57612a4b611af2565b5b5f82013567ffffffffffffffff811115612a6957612a68611af6565b5b612a7584828501612a0a565b91505092915050565b5f8160601b9050919050565b5f612a9482612a7e565b9050919050565b5f612aa582612a8a565b9050919050565b612abd612ab882611ba5565b612a9b565b82525050565b5f612ace8284612aac565b60148201915081905092915050565b5f6020820190508181035f830152612af581846128a7565b905092915050565b5f602082019050612b105f830184611fb9565b92915050565b7f4e487b71000000000000000000000000000000000000000000000000000000005f52603260045260245ffd5b7f4e487b71000000000000000000000000000000000000000000000000000000005f52605160045260245ffdfe6b656363616b323536286162692e656e636f64655061636b656428737761707065722929",
    "linkReferences": {}
  },
  "methodIdentifiers": {
    "addRouter(address)": "24ca984e",
    "afterAddLiquidity(address,(address,address,uint24,int24,address),(int24,int24,int256,bytes32),int256,int256,bytes)": "9f063efc",
    "afterDonate(address,(address,address,uint24,int24,address),uint256,uint256,bytes)": "e1b4af69",
    "afterInitialize(address,(address,address,uint24,int24,address),uint160,int24)": "6fe7e6eb",
    "afterRemoveLiquidity(address,(address,address,uint24,int24,address),(int24,int24,int256,bytes32),int256,int256,bytes)": "6c2bbe7e",
    "afterSwap(address,(address,address,uint24,int24,address),(bool,int256,uint160),int256,bytes)": "b47b2fb1",
    "beforeAddLiquidity(address,(address,address,uint24,int24,address),(int24,int24,int256,bytes32),bytes)": "259982e5",
    "beforeDonate(address,(address,address,uint24,int24,address),uint256,uint256,bytes)": "b6a8b0fa",
    "beforeInitialize(address,(address,address,uint24,int24,address),uint160)": "dc98354e",
    "beforeRemoveLiquidity(address,(address,address,uint24,int24,address),(int24,int24,int256,bytes32),bytes)": "21d0ee70",
    "beforeSwap(address,(address,address,uint24,int24,address),(bool,int256,uint160),bytes)": "575e24b4",
    "getHookPermissions()": "c4e833ce",
    "initializeLiquiDAOPool((address,address,uint24,int24,address),uint160,bytes32,address)": "5f8fd659",
    "liquiDAOPool(bytes32)": "3b4cebd3",
    "owner()": "8da5cb5b",
    "poolManager()": "dc4c90d3",
    "removeRouter(address)": "6ae0b154",
    "renounceOwnership()": "715018a6",
    "transferOwnership(address)": "f2fde38b",
    "updateLiquiDAOPool((address,address,uint24,int24,address),bytes32,address)": "0050fc9c",
    "verifiedRouters(address)": "4abe17fd"
  },
  "id": 134
}